{
  "_format": "hh-sol-artifact-1",
  "contractName": "DotContract",
  "sourceName": "contracts/DotContract.sol",
  "abi": [
    {
      "anonymous": false,
      "inputs": [
        {
          "indexed": true,
          "internalType": "address",
          "name": "dot",
          "type": "address"
        },
        {
          "indexed": false,
          "internalType": "uint256",
          "name": "timestamp",
          "type": "uint256"
        }
      ],
      "name": "DotUpdated",
      "type": "event"
    },
    {
      "inputs": [],
      "name": "MAX_ARRAY_LENGTH",
      "outputs": [
        {
          "internalType": "uint256",
          "name": "",
          "type": "uint256"
        }
      ],
      "stateMutability": "view",
      "type": "function"
    },
    {
      "inputs": [],
      "name": "MAX_NAME_LENGTH",
      "outputs": [
        {
          "internalType": "uint256",
          "name": "",
          "type": "uint256"
        }
      ],
      "stateMutability": "view",
      "type": "function"
    },
    {
      "inputs": [],
      "name": "MAX_STRING_LENGTH",
      "outputs": [
        {
          "internalType": "uint256",
          "name": "",
          "type": "uint256"
        }
      ],
      "stateMutability": "view",
      "type": "function"
    },
    {
      "inputs": [
        {
          "internalType": "uint256",
          "name": "",
          "type": "uint256"
        }
      ],
      "name": "dotList",
      "outputs": [
        {
          "internalType": "address",
          "name": "",
          "type": "address"
        }
      ],
      "stateMutability": "view",
      "type": "function"
    },
    {
      "inputs": [
        {
          "internalType": "address",
          "name": "",
          "type": "address"
        }
      ],
      "name": "dots",
      "outputs": [
        {
          "internalType": "string",
          "name": "name",
          "type": "string"
        },
        {
          "internalType": "uint256",
          "name": "update",
          "type": "uint256"
        }
      ],
      "stateMutability": "view",
      "type": "function"
    },
    {
      "inputs": [
        {
          "internalType": "address",
          "name": "",
          "type": "address"
        }
      ],
      "name": "exists",
      "outputs": [
        {
          "internalType": "bool",
          "name": "",
          "type": "bool"
        }
      ],
      "stateMutability": "view",
      "type": "function"
    },
    {
      "inputs": [],
      "name": "getAllDots",
      "outputs": [
        {
          "internalType": "address[]",
          "name": "addresses",
          "type": "address[]"
        },
        {
          "internalType": "string[]",
          "name": "names",
          "type": "string[]"
        },
        {
          "internalType": "uint256[]",
          "name": "timestamps",
          "type": "uint256[]"
        }
      ],
      "stateMutability": "view",
      "type": "function"
    },
    {
      "inputs": [
        {
          "internalType": "address",
          "name": "dot",
          "type": "address"
        }
      ],
      "name": "getDot",
      "outputs": [
        {
          "internalType": "string",
          "name": "name",
          "type": "string"
        },
        {
          "internalType": "string[]",
          "name": "APIs",
          "type": "string[]"
        },
        {
          "internalType": "string[]",
          "name": "CIDs",
          "type": "string[]"
        },
        {
          "internalType": "uint256",
          "name": "update",
          "type": "uint256"
        }
      ],
      "stateMutability": "view",
      "type": "function"
    },
    {
      "inputs": [],
      "name": "getDotCount",
      "outputs": [
        {
          "internalType": "uint256",
          "name": "",
          "type": "uint256"
        }
      ],
      "stateMutability": "view",
      "type": "function"
    },
    {
      "inputs": [
        {
          "internalType": "uint256",
          "name": "start",
          "type": "uint256"
        },
        {
          "internalType": "uint256",
          "name": "count",
          "type": "uint256"
        }
      ],
      "name": "getDots",
      "outputs": [
        {
          "internalType": "address[]",
          "name": "addresses",
          "type": "address[]"
        },
        {
          "internalType": "string[]",
          "name": "names",
          "type": "string[]"
        },
        {
          "internalType": "uint256[]",
          "name": "timestamps",
          "type": "uint256[]"
        }
      ],
      "stateMutability": "view",
      "type": "function"
    },
    {
      "inputs": [
        {
          "internalType": "string",
          "name": "name",
          "type": "string"
        },
        {
          "internalType": "string[]",
          "name": "APIs",
          "type": "string[]"
        },
        {
          "internalType": "string[]",
          "name": "CIDs",
          "type": "string[]"
        }
      ],
      "name": "setDot",
      "outputs": [],
      "stateMutability": "nonpayable",
      "type": "function"
    }
  ],
  "bytecode": "0x608060405234801561001057600080fd5b50612137806100206000396000f3fe608060405234801561001057600080fd5b50600436106100a95760003560e01c806384711a491161007157806384711a491461014457806386074985146101755780638e70f4cd14610193578063d1be97ef146101c3578063f6a3d24e146101f5578063f736ea6314610225576100a9565b806310c39cff146100ae5780631b74bb0f146100cc578063220fec40146100e85780633156a9da1461010857806334ccc5ea14610126575b600080fd5b6100b6610258565b6040516100c3919061115b565b60405180910390f35b6100e660048036038101906100e19190611245565b610265565b005b6100f06106c1565b6040516100ff939291906115f9565b60405180910390f35b610110610979565b60405161011d919061115b565b60405180910390f35b61012e61097e565b60405161013b919061115b565b60405180910390f35b61015e60048036038101906101599190611671565b610983565b60405161016c9291906116e8565b60405180910390f35b61017d610a2f565b60405161018a919061115b565b60405180910390f35b6101ad60048036038101906101a89190611744565b610a34565b6040516101ba9190611780565b60405180910390f35b6101dd60048036038101906101d8919061179b565b610a73565b6040516101ec939291906115f9565b60405180910390f35b61020f600480360381019061020a9190611671565b610dad565b60405161021c91906117f6565b60405180910390f35b61023f600480360381019061023a9190611671565b610dcd565b60405161024f9493929190611811565b60405180910390f35b6000600180549050905090565b60648686905011156102ac576040517f08c379a00000000000000000000000000000000000000000000000000000000081526004016102a3906118b7565b60405180910390fd5b60328484905011156102f3576040517f08c379a00000000000000000000000000000000000000000000000000000000081526004016102ea90611923565b60405180910390fd5b603282829050111561033a576040517f08c379a00000000000000000000000000000000000000000000000000000000081526004016103319061198f565b60405180910390fd5b60005b848490508110156103bf57606485858381811061035d5761035c6119af565b5b905060200281019061036f91906119ed565b905011156103b2576040517f08c379a00000000000000000000000000000000000000000000000000000000081526004016103a990611a9c565b60405180910390fd5b808060010191505061033d565b5060005b828290508110156104455760648383838181106103e3576103e26119af565b5b90506020028101906103f591906119ed565b90501115610438576040517f08c379a000000000000000000000000000000000000000000000000000000000815260040161042f90611b08565b60405180910390fd5b80806001019150506103c3565b50600260003373ffffffffffffffffffffffffffffffffffffffff1673ffffffffffffffffffffffffffffffffffffffff16815260200190815260200160002060009054906101000a900460ff16610553576001339080600181540180825580915050600190039060005260206000200160009091909190916101000a81548173ffffffffffffffffffffffffffffffffffffffff021916908373ffffffffffffffffffffffffffffffffffffffff1602179055506001600260003373ffffffffffffffffffffffffffffffffffffffff1673ffffffffffffffffffffffffffffffffffffffff16815260200190815260200160002060006101000a81548160ff0219169083151502179055505b604051806080016040528087878080601f016020809104026020016040519081016040528093929190818152602001838380828437600081840152601f19601f8201169050808301925050505050505081526020018585906105b59190611d0b565b81526020018383906105c79190611d0b565b8152602001428152506000803373ffffffffffffffffffffffffffffffffffffffff1673ffffffffffffffffffffffffffffffffffffffff16815260200190815260200160002060008201518160000190816106239190611f2c565b506020820151816001019080519060200190610640929190611068565b50604082015181600201908051906020019061065d929190611068565b50606082015181600301559050503373ffffffffffffffffffffffffffffffffffffffff167f38ebcf383c27f77abb327d4f9ed26a0eb736660fbdab57a7b8bccce21a35d041426040516106b1919061115b565b60405180910390a2505050505050565b6060806060600060018054905090508067ffffffffffffffff8111156106ea576106e9611b28565b5b6040519080825280602002602001820160405280156107185781602001602082028036833780820191505090505b5093508067ffffffffffffffff81111561073557610734611b28565b5b60405190808252806020026020018201604052801561076857816020015b60608152602001906001900390816107535790505b5092508067ffffffffffffffff81111561078557610784611b28565b5b6040519080825280602002602001820160405280156107b35781602001602082028036833780820191505090505b50915060005b81811015610972576000600182815481106107d7576107d66119af565b5b9060005260206000200160009054906101000a900473ffffffffffffffffffffffffffffffffffffffff16905060008060008373ffffffffffffffffffffffffffffffffffffffff1673ffffffffffffffffffffffffffffffffffffffff16815260200190815260200160002090508187848151811061085a576108596119af565b5b602002602001019073ffffffffffffffffffffffffffffffffffffffff16908173ffffffffffffffffffffffffffffffffffffffff16815250508060000180546108a390611d4f565b80601f01602080910402602001604051908101604052809291908181526020018280546108cf90611d4f565b801561091c5780601f106108f15761010080835404028352916020019161091c565b820191906000526020600020905b8154815290600101906020018083116108ff57829003601f168201915b5050505050868481518110610934576109336119af565b5b60200260200101819052508060030154858481518110610957576109566119af565b5b602002602001018181525050505080806001019150506107b9565b5050909192565b603281565b606481565b60006020528060005260406000206000915090508060000180546109a690611d4f565b80601f01602080910402602001604051908101604052809291908181526020018280546109d290611d4f565b8015610a1f5780601f106109f457610100808354040283529160200191610a1f565b820191906000526020600020905b815481529060010190602001808311610a0257829003601f168201915b5050505050908060030154905082565b606481565b60018181548110610a4457600080fd5b906000526020600020016000915054906101000a900473ffffffffffffffffffffffffffffffffffffffff1681565b6060806060600180549050851115610ac0576040517f08c379a0000000000000000000000000000000000000000000000000000000008152600401610ab79061204a565b60405180910390fd5b60008486610ace9190612099565b9050600180549050811115610ae65760018054905090505b60008682610af491906120cd565b90508067ffffffffffffffff811115610b1057610b0f611b28565b5b604051908082528060200260200182016040528015610b3e5781602001602082028036833780820191505090505b5094508067ffffffffffffffff811115610b5b57610b5a611b28565b5b604051908082528060200260200182016040528015610b8e57816020015b6060815260200190600190039081610b795790505b5093508067ffffffffffffffff811115610bab57610baa611b28565b5b604051908082528060200260200182016040528015610bd95781602001602082028036833780820191505090505b50925060005b81811015610da35760006001828a610bf79190612099565b81548110610c0857610c076119af565b5b9060005260206000200160009054906101000a900473ffffffffffffffffffffffffffffffffffffffff16905060008060008373ffffffffffffffffffffffffffffffffffffffff1673ffffffffffffffffffffffffffffffffffffffff168152602001908152602001600020905081888481518110610c8b57610c8a6119af565b5b602002602001019073ffffffffffffffffffffffffffffffffffffffff16908173ffffffffffffffffffffffffffffffffffffffff1681525050806000018054610cd490611d4f565b80601f0160208091040260200160405190810160405280929190818152602001828054610d0090611d4f565b8015610d4d5780601f10610d2257610100808354040283529160200191610d4d565b820191906000526020600020905b815481529060010190602001808311610d3057829003601f168201915b5050505050878481518110610d6557610d646119af565b5b60200260200101819052508060030154868481518110610d8857610d876119af565b5b60200260200101818152505050508080600101915050610bdf565b5050509250925092565b60026020528060005260406000206000915054906101000a900460ff1681565b60608060606000806000808773ffffffffffffffffffffffffffffffffffffffff1673ffffffffffffffffffffffffffffffffffffffff16815260200190815260200160002090508060000181600101826002018360030154838054610e3290611d4f565b80601f0160208091040260200160405190810160405280929190818152602001828054610e5e90611d4f565b8015610eab5780601f10610e8057610100808354040283529160200191610eab565b820191906000526020600020905b815481529060010190602001808311610e8e57829003601f168201915b5050505050935082805480602002602001604051908101604052809291908181526020016000905b82821015610f7f578382906000526020600020018054610ef290611d4f565b80601f0160208091040260200160405190810160405280929190818152602001828054610f1e90611d4f565b8015610f6b5780601f10610f4057610100808354040283529160200191610f6b565b820191906000526020600020905b815481529060010190602001808311610f4e57829003601f168201915b505050505081526020019060010190610ed3565b50505050925081805480602002602001604051908101604052809291908181526020016000905b82821015611052578382906000526020600020018054610fc590611d4f565b80601f0160208091040260200160405190810160405280929190818152602001828054610ff190611d4f565b801561103e5780601f106110135761010080835404028352916020019161103e565b820191906000526020600020905b81548152906001019060200180831161102157829003601f168201915b505050505081526020019060010190610fa6565b5050505091509450945094509450509193509193565b8280548282559060005260206000209081019282156110b0579160200282015b828111156110af57825182908161109f9190611f2c565b5091602001919060010190611088565b5b5090506110bd91906110c1565b5090565b5b808211156110e157600081816110d891906110e5565b506001016110c2565b5090565b5080546110f190611d4f565b6000825580601f106111035750611122565b601f0160209004906000526020600020908101906111219190611125565b5b50565b5b8082111561113e576000816000905550600101611126565b5090565b6000819050919050565b61115581611142565b82525050565b6000602082019050611170600083018461114c565b92915050565b6000604051905090565b600080fd5b600080fd5b600080fd5b600080fd5b600080fd5b60008083601f8401126111af576111ae61118a565b5b8235905067ffffffffffffffff8111156111cc576111cb61118f565b5b6020830191508360018202830111156111e8576111e7611194565b5b9250929050565b60008083601f8401126112055761120461118a565b5b8235905067ffffffffffffffff8111156112225761122161118f565b5b60208301915083602082028301111561123e5761123d611194565b5b9250929050565b6000806000806000806060878903121561126257611261611180565b5b600087013567ffffffffffffffff8111156112805761127f611185565b5b61128c89828a01611199565b9650965050602087013567ffffffffffffffff8111156112af576112ae611185565b5b6112bb89828a016111ef565b9450945050604087013567ffffffffffffffff8111156112de576112dd611185565b5b6112ea89828a016111ef565b92509250509295509295509295565b600081519050919050565b600082825260208201905092915050565b6000819050602082019050919050565b600073ffffffffffffffffffffffffffffffffffffffff82169050919050565b600061135082611325565b9050919050565b61136081611345565b82525050565b60006113728383611357565b60208301905092915050565b6000602082019050919050565b6000611396826112f9565b6113a08185611304565b93506113ab83611315565b8060005b838110156113dc5781516113c38882611366565b97506113ce8361137e565b9250506001810190506113af565b5085935050505092915050565b600081519050919050565b600082825260208201905092915050565b6000819050602082019050919050565b600081519050919050565b600082825260208201905092915050565b60005b8381101561144f578082015181840152602081019050611434565b60008484015250505050565b6000601f19601f8301169050919050565b600061147782611415565b6114818185611420565b9350611491818560208601611431565b61149a8161145b565b840191505092915050565b60006114b1838361146c565b905092915050565b6000602082019050919050565b60006114d1826113e9565b6114db81856113f4565b9350836020820285016114ed85611405565b8060005b85811015611529578484038952815161150a85826114a5565b9450611515836114b9565b925060208a019950506001810190506114f1565b50829750879550505050505092915050565b600081519050919050565b600082825260208201905092915050565b6000819050602082019050919050565b61157081611142565b82525050565b60006115828383611567565b60208301905092915050565b6000602082019050919050565b60006115a68261153b565b6115b08185611546565b93506115bb83611557565b8060005b838110156115ec5781516115d38882611576565b97506115de8361158e565b9250506001810190506115bf565b5085935050505092915050565b60006060820190508181036000830152611613818661138b565b9050818103602083015261162781856114c6565b9050818103604083015261163b818461159b565b9050949350505050565b61164e81611345565b811461165957600080fd5b50565b60008135905061166b81611645565b92915050565b60006020828403121561168757611686611180565b5b60006116958482850161165c565b91505092915050565b600082825260208201905092915050565b60006116ba82611415565b6116c4818561169e565b93506116d4818560208601611431565b6116dd8161145b565b840191505092915050565b6000604082019050818103600083015261170281856116af565b9050611711602083018461114c565b9392505050565b61172181611142565b811461172c57600080fd5b50565b60008135905061173e81611718565b92915050565b60006020828403121561175a57611759611180565b5b60006117688482850161172f565b91505092915050565b61177a81611345565b82525050565b60006020820190506117956000830184611771565b92915050565b600080604083850312156117b2576117b1611180565b5b60006117c08582860161172f565b92505060206117d18582860161172f565b9150509250929050565b60008115159050919050565b6117f0816117db565b82525050565b600060208201905061180b60008301846117e7565b92915050565b6000608082019050818103600083015261182b81876116af565b9050818103602083015261183f81866114c6565b9050818103604083015261185381856114c6565b9050611862606083018461114c565b95945050505050565b7f4e616d6520746f6f206c6f6e6700000000000000000000000000000000000000600082015250565b60006118a1600d8361169e565b91506118ac8261186b565b602082019050919050565b600060208201905081810360008301526118d081611894565b9050919050565b7f546f6f206d616e79204150497300000000000000000000000000000000000000600082015250565b600061190d600d8361169e565b9150611918826118d7565b602082019050919050565b6000602082019050818103600083015261193c81611900565b9050919050565b7f546f6f206d616e79204349447300000000000000000000000000000000000000600082015250565b6000611979600d8361169e565b915061198482611943565b602082019050919050565b600060208201905081810360008301526119a88161196c565b9050919050565b7f4e487b7100000000000000000000000000000000000000000000000000000000600052603260045260246000fd5b600080fd5b600080fd5b600080fd5b60008083356001602003843603038112611a0a57611a096119de565b5b80840192508235915067ffffffffffffffff821115611a2c57611a2b6119e3565b5b602083019250600182023603831315611a4857611a476119e8565b5b509250929050565b7f41504920737472696e6720746f6f206c6f6e6700000000000000000000000000600082015250565b6000611a8660138361169e565b9150611a9182611a50565b602082019050919050565b60006020820190508181036000830152611ab581611a79565b9050919050565b7f43494420737472696e6720746f6f206c6f6e6700000000000000000000000000600082015250565b6000611af260138361169e565b9150611afd82611abc565b602082019050919050565b60006020820190508181036000830152611b2181611ae5565b9050919050565b7f4e487b7100000000000000000000000000000000000000000000000000000000600052604160045260246000fd5b611b608261145b565b810181811067ffffffffffffffff82111715611b7f57611b7e611b28565b5b80604052505050565b6000611b92611176565b9050611b9e8282611b57565b919050565b600067ffffffffffffffff821115611bbe57611bbd611b28565b5b602082029050602081019050919050565b600080fd5b600067ffffffffffffffff821115611bef57611bee611b28565b5b611bf88261145b565b9050602081019050919050565b82818337600083830152505050565b6000611c27611c2284611bd4565b611b88565b905082815260208101848484011115611c4357611c42611bcf565b5b611c4e848285611c05565b509392505050565b600082601f830112611c6b57611c6a61118a565b5b8135611c7b848260208601611c14565b91505092915050565b6000611c97611c9284611ba3565b611b88565b90508083825260208201905060208402830185811115611cba57611cb9611194565b5b835b81811015611d0157803567ffffffffffffffff811115611cdf57611cde61118a565b5b808601611cec8982611c56565b85526020850194505050602081019050611cbc565b5050509392505050565b6000611d18368484611c84565b905092915050565b7f4e487b7100000000000000000000000000000000000000000000000000000000600052602260045260246000fd5b60006002820490506001821680611d6757607f821691505b602082108103611d7a57611d79611d20565b5b50919050565b60008190508160005260206000209050919050565b60006020601f8301049050919050565b600082821b905092915050565b600060088302611de27fffffffffffffffffffffffffffffffffffffffffffffffffffffffffffffffff82611da5565b611dec8683611da5565b95508019841693508086168417925050509392505050565b6000819050919050565b6000611e29611e24611e1f84611142565b611e04565b611142565b9050919050565b6000819050919050565b611e4383611e0e565b611e57611e4f82611e30565b848454611db2565b825550505050565b600090565b611e6c611e5f565b611e77818484611e3a565b505050565b5b81811015611e9b57611e90600082611e64565b600181019050611e7d565b5050565b601f821115611ee057611eb181611d80565b611eba84611d95565b81016020851015611ec9578190505b611edd611ed585611d95565b830182611e7c565b50505b505050565b600082821c905092915050565b6000611f0360001984600802611ee5565b1980831691505092915050565b6000611f1c8383611ef2565b9150826002028217905092915050565b611f3582611415565b67ffffffffffffffff811115611f4e57611f4d611b28565b5b611f588254611d4f565b611f63828285611e9f565b600060209050601f831160018114611f965760008415611f84578287015190505b611f8e8582611f10565b865550611ff6565b601f198416611fa486611d80565b60005b82811015611fcc57848901518255600182019150602085019450602081019050611fa7565b86831015611fe95784890151611fe5601f891682611ef2565b8355505b6001600288020188555050505b505050505050565b7f496e76616c696420737461727400000000000000000000000000000000000000600082015250565b6000612034600d8361169e565b915061203f82611ffe565b602082019050919050565b6000602082019050818103600083015261206381612027565b9050919050565b7f4e487b7100000000000000000000000000000000000000000000000000000000600052601160045260246000fd5b60006120a482611142565b91506120af83611142565b92508282019050808211156120c7576120c661206a565b5b92915050565b60006120d882611142565b91506120e383611142565b92508282039050818111156120fb576120fa61206a565b5b9291505056fea2646970667358221220d9b1151baa566d69d03da513e5223767c391b6a2137f4ed5caa0a92781d7af1d64736f6c63430008180033",
  "linkReferences": {},
  "deployedLinkReferences": {}
}